{
  "contractName": "coffee",
  "abi": [
    {
      "inputs": [],
      "stateMutability": "nonpayable",
      "type": "constructor"
    },
    {
      "inputs": [
        {
          "internalType": "uint256",
          "name": "",
          "type": "uint256"
        }
      ],
      "name": "memos",
      "outputs": [
        {
          "internalType": "string",
          "name": "name",
          "type": "string"
        },
        {
          "internalType": "string",
          "name": "typename",
          "type": "string"
        },
        {
          "internalType": "string",
          "name": "location",
          "type": "string"
        },
        {
          "internalType": "string",
          "name": "message",
          "type": "string"
        },
        {
          "internalType": "uint256",
          "name": "timestamp",
          "type": "uint256"
        },
        {
          "internalType": "address",
          "name": "from",
          "type": "address"
        }
      ],
      "stateMutability": "view",
      "type": "function",
      "constant": true
    },
    {
      "inputs": [
        {
          "internalType": "string",
          "name": "name",
          "type": "string"
        },
        {
          "internalType": "string",
          "name": "typename",
          "type": "string"
        },
        {
          "internalType": "string",
          "name": "location",
          "type": "string"
        },
        {
          "internalType": "string",
          "name": "message",
          "type": "string"
        }
      ],
      "name": "buyCoffee",
      "outputs": [],
      "stateMutability": "payable",
      "type": "function",
      "payable": true
    },
    {
      "inputs": [],
      "name": "getMemos",
      "outputs": [
        {
          "components": [
            {
              "internalType": "string",
              "name": "name",
              "type": "string"
            },
            {
              "internalType": "string",
              "name": "typename",
              "type": "string"
            },
            {
              "internalType": "string",
              "name": "location",
              "type": "string"
            },
            {
              "internalType": "string",
              "name": "message",
              "type": "string"
            },
            {
              "internalType": "uint256",
              "name": "timestamp",
              "type": "uint256"
            },
            {
              "internalType": "address",
              "name": "from",
              "type": "address"
            }
          ],
          "internalType": "struct coffee.Memo[]",
          "name": "",
          "type": "tuple[]"
        }
      ],
      "stateMutability": "view",
      "type": "function",
      "constant": true
    }
  ],
  "bytecode": "0x608060405234801561001057600080fd5b5033600160006101000a81548173ffffffffffffffffffffffffffffffffffffffff021916908373ffffffffffffffffffffffffffffffffffffffff160217905550611000806100616000396000f3fe6080604052600436106100345760003560e01c8063865c517214610039578063e8dfdf0414610064578063ec5699fa146100a6575b600080fd5b34801561004557600080fd5b5061004e6100c2565b60405161005b9190610c46565b60405180910390f35b34801561007057600080fd5b5061008b60048036038101906100869190610c9e565b6103c9565b60405161009d96959493929190610d33565b60405180910390f35b6100c060048036038101906100bb9190610e15565b610655565b005b60606000805480602002602001604051908101604052809291908181526020016000905b828210156103c057838290600052602060002090600602016040518060c001604052908160008201805461011990610f2d565b80601f016020809104026020016040519081016040528092919081815260200182805461014590610f2d565b80156101925780601f1061016757610100808354040283529160200191610192565b820191906000526020600020905b81548152906001019060200180831161017557829003601f168201915b505050505081526020016001820180546101ab90610f2d565b80601f01602080910402602001604051908101604052809291908181526020018280546101d790610f2d565b80156102245780601f106101f957610100808354040283529160200191610224565b820191906000526020600020905b81548152906001019060200180831161020757829003601f168201915b5050505050815260200160028201805461023d90610f2d565b80601f016020809104026020016040519081016040528092919081815260200182805461026990610f2d565b80156102b65780601f1061028b576101008083540402835291602001916102b6565b820191906000526020600020905b81548152906001019060200180831161029957829003601f168201915b505050505081526020016003820180546102cf90610f2d565b80601f01602080910402602001604051908101604052809291908181526020018280546102fb90610f2d565b80156103485780601f1061031d57610100808354040283529160200191610348565b820191906000526020600020905b81548152906001019060200180831161032b57829003601f168201915b50505050508152602001600482015481526020016005820160009054906101000a900473ffffffffffffffffffffffffffffffffffffffff1673ffffffffffffffffffffffffffffffffffffffff1673ffffffffffffffffffffffffffffffffffffffff1681525050815260200190600101906100e6565b50505050905090565b600081815481106103d957600080fd5b90600052602060002090600602016000915090508060000180546103fc90610f2d565b80601f016020809104026020016040519081016040528092919081815260200182805461042890610f2d565b80156104755780601f1061044a57610100808354040283529160200191610475565b820191906000526020600020905b81548152906001019060200180831161045857829003601f168201915b50505050509080600101805461048a90610f2d565b80601f01602080910402602001604051908101604052809291908181526020018280546104b690610f2d565b80156105035780601f106104d857610100808354040283529160200191610503565b820191906000526020600020905b8154815290600101906020018083116104e657829003601f168201915b50505050509080600201805461051890610f2d565b80601f016020809104026020016040519081016040528092919081815260200182805461054490610f2d565b80156105915780601f1061056657610100808354040283529160200191610591565b820191906000526020600020905b81548152906001019060200180831161057457829003601f168201915b5050505050908060030180546105a690610f2d565b80601f01602080910402602001604051908101604052809291908181526020018280546105d290610f2d565b801561061f5780601f106105f45761010080835404028352916020019161061f565b820191906000526020600020905b81548152906001019060200180831161060257829003601f168201915b5050505050908060040154908060050160009054906101000a900473ffffffffffffffffffffffffffffffffffffffff16905086565b60003411610698576040517f08c379a000000000000000000000000000000000000000000000000000000000815260040161068f90610faa565b60405180910390fd5b600160009054906101000a900473ffffffffffffffffffffffffffffffffffffffff1673ffffffffffffffffffffffffffffffffffffffff166108fc349081150290604051600060405180830381858888f19350505050158015610700573d6000803e3d6000fd5b5060006040518060c001604052808a8a8080601f016020809104026020016040519081016040528093929190818152602001838380828437600081840152601f19601f82011690508083019250505050505050815260200188888080601f016020809104026020016040519081016040528093929190818152602001838380828437600081840152601f19601f82011690508083019250505050505050815260200186868080601f016020809104026020016040519081016040528093929190818152602001838380828437600081840152601f19601f82011690508083019250505050505050815260200184848080601f016020809104026020016040519081016040528093929190818152602001838380828437600081840152601f19601f8201169050808301925050505050505081526020014281526020013373ffffffffffffffffffffffffffffffffffffffff168152509080600181540180825580915050600190039060005260206000209060060201600090919091909150600082015181600001908051906020019061089b929190610950565b5060208201518160010190805190602001906108b8929190610950565b5060408201518160020190805190602001906108d5929190610950565b5060608201518160030190805190602001906108f2929190610950565b506080820151816004015560a08201518160050160006101000a81548173ffffffffffffffffffffffffffffffffffffffff021916908373ffffffffffffffffffffffffffffffffffffffff16021790555050505050505050505050565b82805461095c90610f2d565b90600052602060002090601f01602090048101928261097e57600085556109c5565b82601f1061099757805160ff19168380011785556109c5565b828001600101855582156109c5579182015b828111156109c45782518255916020019190600101906109a9565b5b5090506109d291906109d6565b5090565b5b808211156109ef5760008160009055506001016109d7565b5090565b600081519050919050565b600082825260208201905092915050565b6000819050602082019050919050565b600081519050919050565b600082825260208201905092915050565b60005b83811015610a59578082015181840152602081019050610a3e565b83811115610a68576000848401525b50505050565b6000601f19601f8301169050919050565b6000610a8a82610a1f565b610a948185610a2a565b9350610aa4818560208601610a3b565b610aad81610a6e565b840191505092915050565b6000819050919050565b610acb81610ab8565b82525050565b600073ffffffffffffffffffffffffffffffffffffffff82169050919050565b6000610afc82610ad1565b9050919050565b610b0c81610af1565b82525050565b600060c0830160008301518482036000860152610b2f8282610a7f565b91505060208301518482036020860152610b498282610a7f565b91505060408301518482036040860152610b638282610a7f565b91505060608301518482036060860152610b7d8282610a7f565b9150506080830151610b926080860182610ac2565b5060a0830151610ba560a0860182610b03565b508091505092915050565b6000610bbc8383610b12565b905092915050565b6000602082019050919050565b6000610bdc826109f3565b610be681856109fe565b935083602082028501610bf885610a0f565b8060005b85811015610c345784840389528151610c158582610bb0565b9450610c2083610bc4565b925060208a01995050600181019050610bfc565b50829750879550505050505092915050565b60006020820190508181036000830152610c608184610bd1565b905092915050565b600080fd5b600080fd5b610c7b81610ab8565b8114610c8657600080fd5b50565b600081359050610c9881610c72565b92915050565b600060208284031215610cb457610cb3610c68565b5b6000610cc284828501610c89565b91505092915050565b600082825260208201905092915050565b6000610ce782610a1f565b610cf18185610ccb565b9350610d01818560208601610a3b565b610d0a81610a6e565b840191505092915050565b610d1e81610ab8565b82525050565b610d2d81610af1565b82525050565b600060c0820190508181036000830152610d4d8189610cdc565b90508181036020830152610d618188610cdc565b90508181036040830152610d758187610cdc565b90508181036060830152610d898186610cdc565b9050610d986080830185610d15565b610da560a0830184610d24565b979650505050505050565b600080fd5b600080fd5b600080fd5b60008083601f840112610dd557610dd4610db0565b5b8235905067ffffffffffffffff811115610df257610df1610db5565b5b602083019150836001820283011115610e0e57610e0d610dba565b5b9250929050565b6000806000806000806000806080898b031215610e3557610e34610c68565b5b600089013567ffffffffffffffff811115610e5357610e52610c6d565b5b610e5f8b828c01610dbf565b9850985050602089013567ffffffffffffffff811115610e8257610e81610c6d565b5b610e8e8b828c01610dbf565b9650965050604089013567ffffffffffffffff811115610eb157610eb0610c6d565b5b610ebd8b828c01610dbf565b9450945050606089013567ffffffffffffffff811115610ee057610edf610c6d565b5b610eec8b828c01610dbf565b92509250509295985092959890939650565b7f4e487b7100000000000000000000000000000000000000000000000000000000600052602260045260246000fd5b60006002820490506001821680610f4557607f821691505b602082108103610f5857610f57610efe565b5b50919050565b7f506c6561736520656e74657220726967687420616d6f756e7400000000000000600082015250565b6000610f94601983610ccb565b9150610f9f82610f5e565b602082019050919050565b60006020820190508181036000830152610fc381610f87565b905091905056fea264697066735822122008ef18ff3b38d70481f464149776a9826874a3cf275d33f847b782315545029864736f6c634300080d0033",
  "immutableReferences": {},
  "source": "// SPDX-License-Identifier: MIT \r\npragma solidity 0.8.13;\r\ncontract coffee {\r\n    struct Memo {\r\n        string name;\r\n        string typename;\r\n        string location;\r\n        string message;\r\n        uint256 timestamp;\r\n        address from;\r\n    }\r\n\r\n    Memo[] public memos;\r\n    address payable owner;\r\n\r\n    constructor() {\r\n        owner = payable(msg.sender);\r\n    }\r\n\r\n    function buyCoffee(\r\n        string calldata name,\r\n        string calldata typename,\r\n        string calldata location,\r\n        string calldata message\r\n    ) external payable {\r\n        require(msg.value > 0, \"Please enter right amount\");\r\n        owner.transfer(msg.value);\r\n        memos.push(\r\n            Memo(name, typename, location, message, block.timestamp, msg.sender)\r\n        );\r\n    }\r\n\r\n    function getMemos() public view returns (Memo[] memory) {\r\n        return memos;\r\n    }\r\n}\r\n",
  "sourcePath": "D:\\Code\\BlockChain\\CofffeApp\\contracts\\coffee.sol",
  "compiler": {
    "name": "solc",
    "version": "0.8.13+commit.abaa5c0e.Emscripten.clang"
  },
  "schemaVersion": "3.4.16",
  "updatedAt": "2023-11-07T04:25:37.892Z",
  "networkType": "ethereum",
  "devdoc": {
    "kind": "dev",
    "methods": {},
    "version": 1
  },
  "userdoc": {
    "kind": "user",
    "methods": {},
    "version": 1
  }
}